:02000000802E50
:0F003000758120780279037A047B057C067D07B1
:10003F007E087F09D2D3781279137A147B157C1638
:10004F007D177E187F19B2D3B2D4782279237A2400
:10005F007B257C267D277E287F29D2D37832793362
:10006F007A347B357C367D377E387F39C2D3C2D424
:0F007F00753012C030C0047411C0207400D0E07E
:0F008E00D0E0D0E086E08504E075E01F75E0303B
:10009D00D200D202C90080FD48454C4C4F20574F2D
:0300AD00524C446E
:00000001FF
