:10000000C290C291C292741475F00075A030D29261
:10001000C292740675F00075A038D292C29274082C
:0F002000112B740C112B7406112B22F5A0C2901A
:0F002F00C291D292C292115D22F5A0D290C291DD
:0F003E00D292C292115D227440112B7807E49385
:10004D001138A3D8F922E49360051138A380F72263
:0E005D00D2A7D292C290D291C292E5A0D292C6
:0F006B0020E7F72213D5E0FD2205F078F9D8FE43
:0B007A0078F9D8FED5E0F5D5F0F222B1
:00000001FF
