:02000000802E50
:0F00300075B03F116E74801199745311A674C08E
:10003F001199744211A674011199740E119974805B
:10004F00119990020011C190021011B3740111990E
:0F005F00740C119974801199740011A60080FD22
:10006E00C290C291C292741475F00075A030D292F3
:10007E00C292740675F00075A038D292C2927408BE
:0F008E001199740C11997406119922F5A0C29062
:0F009D00C291D292C29211CB22F5A0D290C29101
:0F00AC00D292C29211CB22744011997807E4933B
:1000BB0011A6A3D8F922E493600511A6A380F72219
:0E00CB00D2A7D292C290D291C292E5A0D29258
:0F00D90020E7F72213D5E0FD2205F078F9D8FED5
:0B00E80078F9D8FED5E0F5D5F0F22243
:1002000038303531206973204C6567656E64210094
:08021000040E0E0E1F00040095
:00000001FF
