:1000000075B0FF741475F000119775B08375B00367
:0F001000740F75F000119775B08375B003740508
:10001F0075F000119775B08375B003740575F00016
:10002F00119775B08275B002740575F000119722A3
:10003F00110074281152740C1152740611527480ED
:10004F00115222F580C4540F2480F5B0540FF5B02F
:0E005F00E580540F2480F5B0540FF5B0740105
:10006D0075F000119722F580C4540F24A0F5B0004F
:0F007D00C2B7E580540F24A0F5B000C2B77401DC
:0F008C0075F00011972213D5E0FD2205F078F9E9
:0D009B00D8FE78F9D8FED5E0F5D5F0F222B8
:00000001FF
